{
  "_format": "hh3-artifact-1",
  "contractName": "ACL",
  "sourceName": "contracts/ACL.sol",
  "abi": [
    {
      "inputs": [],
      "stateMutability": "nonpayable",
      "type": "constructor"
    },
    {
      "inputs": [
        {
          "internalType": "address",
          "name": "target",
          "type": "address"
        }
      ],
      "name": "AddressEmptyCode",
      "type": "error"
    },
    {
      "inputs": [
        {
          "internalType": "address",
          "name": "implementation",
          "type": "address"
        }
      ],
      "name": "ERC1967InvalidImplementation",
      "type": "error"
    },
    {
      "inputs": [],
      "name": "ERC1967NonPayable",
      "type": "error"
    },
    {
      "inputs": [],
      "name": "FailedCall",
      "type": "error"
    },
    {
      "inputs": [],
      "name": "InvalidEmptyBytes",
      "type": "error"
    },
    {
      "inputs": [],
      "name": "InvalidInitialization",
      "type": "error"
    },
    {
      "inputs": [],
      "name": "InvalidZeroAddress",
      "type": "error"
    },
    {
      "inputs": [
        {
          "internalType": "bytes32",
          "name": "handle",
          "type": "bytes32"
        },
        {
          "internalType": "address",
          "name": "account",
          "type": "address"
        }
      ],
      "name": "NotAllowed",
      "type": "error"
    },
    {
      "inputs": [],
      "name": "NotInitializing",
      "type": "error"
    },
    {
      "inputs": [
        {
          "internalType": "address",
          "name": "owner",
          "type": "address"
        }
      ],
      "name": "OwnableInvalidOwner",
      "type": "error"
    },
    {
      "inputs": [
        {
          "internalType": "address",
          "name": "account",
          "type": "address"
        }
      ],
      "name": "OwnableUnauthorizedAccount",
      "type": "error"
    },
    {
      "inputs": [],
      "name": "UUPSUnauthorizedCallContext",
      "type": "error"
    },
    {
      "inputs": [
        {
          "internalType": "bytes32",
          "name": "slot",
          "type": "bytes32"
        }
      ],
      "name": "UUPSUnsupportedProxiableUUID",
      "type": "error"
    },
    {
      "inputs": [
        {
          "internalType": "address",
          "name": "sender",
          "type": "address"
        }
      ],
      "name": "UnauthorizedSender",
      "type": "error"
    },
    {
      "anonymous": false,
      "inputs": [
        {
          "indexed": true,
          "internalType": "address",
          "name": "sender",
          "type": "address"
        },
        {
          "indexed": true,
          "internalType": "address",
          "name": "account",
          "type": "address"
        },
        {
          "indexed": true,
          "internalType": "bytes32",
          "name": "handle",
          "type": "bytes32"
        }
      ],
      "name": "Allowed",
      "type": "event"
    },
    {
      "anonymous": false,
      "inputs": [
        {
          "indexed": false,
          "internalType": "uint64",
          "name": "version",
          "type": "uint64"
        }
      ],
      "name": "Initialized",
      "type": "event"
    },
    {
      "anonymous": false,
      "inputs": [
        {
          "indexed": true,
          "internalType": "address",
          "name": "sender",
          "type": "address"
        },
        {
          "indexed": true,
          "internalType": "bytes32",
          "name": "handle",
          "type": "bytes32"
        }
      ],
      "name": "MarkedAsPubliclyDecryptable",
      "type": "event"
    },
    {
      "anonymous": false,
      "inputs": [
        {
          "indexed": true,
          "internalType": "address",
          "name": "newNoxCompute",
          "type": "address"
        }
      ],
      "name": "NoxComputeUpdated",
      "type": "event"
    },
    {
      "anonymous": false,
      "inputs": [
        {
          "indexed": true,
          "internalType": "address",
          "name": "previousOwner",
          "type": "address"
        },
        {
          "indexed": true,
          "internalType": "address",
          "name": "newOwner",
          "type": "address"
        }
      ],
      "name": "OwnershipTransferred",
      "type": "event"
    },
    {
      "anonymous": false,
      "inputs": [
        {
          "indexed": true,
          "internalType": "address",
          "name": "implementation",
          "type": "address"
        }
      ],
      "name": "Upgraded",
      "type": "event"
    },
    {
      "anonymous": false,
      "inputs": [
        {
          "indexed": true,
          "internalType": "address",
          "name": "sender",
          "type": "address"
        },
        {
          "indexed": true,
          "internalType": "address",
          "name": "viewer",
          "type": "address"
        },
        {
          "indexed": true,
          "internalType": "bytes32",
          "name": "handle",
          "type": "bytes32"
        }
      ],
      "name": "ViewerAdded",
      "type": "event"
    },
    {
      "inputs": [],
      "name": "UPGRADE_INTERFACE_VERSION",
      "outputs": [
        {
          "internalType": "string",
          "name": "",
          "type": "string"
        }
      ],
      "stateMutability": "view",
      "type": "function"
    },
    {
      "inputs": [
        {
          "internalType": "bytes32",
          "name": "handle",
          "type": "bytes32"
        },
        {
          "internalType": "address",
          "name": "viewer",
          "type": "address"
        }
      ],
      "name": "addViewer",
      "outputs": [],
      "stateMutability": "nonpayable",
      "type": "function"
    },
    {
      "inputs": [
        {
          "internalType": "bytes32",
          "name": "handle",
          "type": "bytes32"
        },
        {
          "internalType": "address",
          "name": "account",
          "type": "address"
        }
      ],
      "name": "allow",
      "outputs": [],
      "stateMutability": "nonpayable",
      "type": "function"
    },
    {
      "inputs": [
        {
          "internalType": "bytes32",
          "name": "handle",
          "type": "bytes32"
        }
      ],
      "name": "allowPublicDecryption",
      "outputs": [],
      "stateMutability": "nonpayable",
      "type": "function"
    },
    {
      "inputs": [
        {
          "internalType": "bytes32",
          "name": "handle",
          "type": "bytes32"
        },
        {
          "internalType": "address",
          "name": "account",
          "type": "address"
        }
      ],
      "name": "allowTransient",
      "outputs": [],
      "stateMutability": "nonpayable",
      "type": "function"
    },
    {
      "inputs": [],
      "name": "cleanTransientStorage",
      "outputs": [],
      "stateMutability": "nonpayable",
      "type": "function"
    },
    {
      "inputs": [
        {
          "internalType": "address",
          "name": "initialOwner",
          "type": "address"
        }
      ],
      "name": "initialize",
      "outputs": [],
      "stateMutability": "nonpayable",
      "type": "function"
    },
    {
      "inputs": [
        {
          "internalType": "bytes32",
          "name": "handle",
          "type": "bytes32"
        },
        {
          "internalType": "address",
          "name": "account",
          "type": "address"
        }
      ],
      "name": "isAllowed",
      "outputs": [
        {
          "internalType": "bool",
          "name": "",
          "type": "bool"
        }
      ],
      "stateMutability": "view",
      "type": "function"
    },
    {
      "inputs": [
        {
          "internalType": "bytes32",
          "name": "handle",
          "type": "bytes32"
        }
      ],
      "name": "isPubliclyDecryptable",
      "outputs": [
        {
          "internalType": "bool",
          "name": "",
          "type": "bool"
        }
      ],
      "stateMutability": "view",
      "type": "function"
    },
    {
      "inputs": [
        {
          "internalType": "bytes32",
          "name": "handle",
          "type": "bytes32"
        },
        {
          "internalType": "address",
          "name": "viewer",
          "type": "address"
        }
      ],
      "name": "isViewer",
      "outputs": [
        {
          "internalType": "bool",
          "name": "",
          "type": "bool"
        }
      ],
      "stateMutability": "view",
      "type": "function"
    },
    {
      "inputs": [],
      "name": "owner",
      "outputs": [
        {
          "internalType": "address",
          "name": "",
          "type": "address"
        }
      ],
      "stateMutability": "view",
      "type": "function"
    },
    {
      "inputs": [],
      "name": "proxiableUUID",
      "outputs": [
        {
          "internalType": "bytes32",
          "name": "",
          "type": "bytes32"
        }
      ],
      "stateMutability": "view",
      "type": "function"
    },
    {
      "inputs": [],
      "name": "renounceOwnership",
      "outputs": [],
      "stateMutability": "nonpayable",
      "type": "function"
    },
    {
      "inputs": [
        {
          "internalType": "address",
          "name": "newNoxCompute",
          "type": "address"
        }
      ],
      "name": "setNoxCompute",
      "outputs": [],
      "stateMutability": "nonpayable",
      "type": "function"
    },
    {
      "inputs": [
        {
          "internalType": "address",
          "name": "newOwner",
          "type": "address"
        }
      ],
      "name": "transferOwnership",
      "outputs": [],
      "stateMutability": "nonpayable",
      "type": "function"
    },
    {
      "inputs": [
        {
          "internalType": "address",
          "name": "newImplementation",
          "type": "address"
        },
        {
          "internalType": "bytes",
          "name": "data",
          "type": "bytes"
        }
      ],
      "name": "upgradeToAndCall",
      "outputs": [],
      "stateMutability": "payable",
      "type": "function"
    },
    {
      "inputs": [
        {
          "internalType": "address",
          "name": "account",
          "type": "address"
        },
        {
          "internalType": "bytes32[]",
          "name": "handles",
          "type": "bytes32[]"
        }
      ],
      "name": "validateAllowedForAll",
      "outputs": [],
      "stateMutability": "view",
      "type": "function"
    }
  ],
  "bytecode": "0x60a06040523073ffffffffffffffffffffffffffffffffffffffff1660809073ffffffffffffffffffffffffffffffffffffffff16815250348015610042575f5ffd5b5061005161005660201b60201c565b6101d1565b5f61006561015460201b60201c565b9050805f0160089054906101000a900460ff16156100af576040517ff92ee8a900000000000000000000000000000000000000000000000000000000815260040160405180910390fd5b67ffffffffffffffff8016815f015f9054906101000a900467ffffffffffffffff1667ffffffffffffffff16146101515767ffffffffffffffff815f015f6101000a81548167ffffffffffffffff021916908367ffffffffffffffff1602179055507fc7f505b2f371ae2175ee4913f4499e1f2633a7b5936321eed1cdaeb6115181d267ffffffffffffffff60405161014891906101b8565b60405180910390a15b50565b5f5f61016461016d60201b60201c565b90508091505090565b5f7ff0c57e16840df040f15088dc2f81fe391c3923bec73e23a9662efc9c229c6a005f1b905090565b5f67ffffffffffffffff82169050919050565b6101b281610196565b82525050565b5f6020820190506101cb5f8301846101a9565b92915050565b608051611ee16101f75f395f8181610f9d01528181610ff201526111ac0152611ee15ff3fe6080604052600436106100fd575f3560e01c8063715018a611610094578063ad3cb1cc11610063578063ad3cb1cc146102f1578063b9496b621461031b578063c4d66de814610343578063cfc3f0ff1461036b578063f2fde38b14610393576100fd565b8063715018a61461023957806382027b6d1461024f5780638da5cb5b1461028b57806398c38455146102b5576100fd565b80633e395cec116100d05780633e395cec146101a35780634f1ef286146101cb57806352d1902d146101e757806369c39d9014610211576100fd565b806302d0e66e1461010157806310ff39ca1461013d5780632bccd45b1461016557806335334c231461018d575b5f5ffd5b34801561010c575f5ffd5b50610127600480360381019061012291906118d9565b6103bb565b6040516101349190611931565b60405180910390f35b348015610148575f5ffd5b50610163600480360381019061015e91906118d9565b6104b3565b005b348015610170575f5ffd5b5061018b6004803603810190610186919061194a565b610638565b005b348015610198575f5ffd5b506101a161073b565b005b3480156101ae575f5ffd5b506101c960048036038101906101c491906118d9565b610768565b005b6101e560048036038101906101e09190611ab1565b6108c6565b005b3480156101f2575f5ffd5b506101fb6108e5565b6040516102089190611b1a565b60405180910390f35b34801561021c575f5ffd5b5061023760048036038101906102329190611b33565b610916565b005b348015610244575f5ffd5b5061024d6109e1565b005b34801561025a575f5ffd5b50610275600480360381019061027091906118d9565b6109f4565b6040516102829190611931565b60405180910390f35b348015610296575f5ffd5b5061029f610a18565b6040516102ac9190611b6d565b60405180910390f35b3480156102c0575f5ffd5b506102db60048036038101906102d69190611b33565b610a4d565b6040516102e89190611931565b60405180910390f35b3480156102fc575f5ffd5b50610305610a81565b6040516103129190611be6565b60405180910390f35b348015610326575f5ffd5b50610341600480360381019061033c91906118d9565b610aba565b005b34801561034e575f5ffd5b506103696004803603810190610364919061194a565b610c3e565b005b348015610376575f5ffd5b50610391600480360381019061038c9190611c63565b610dc7565b005b34801561039e575f5ffd5b506103b960048036038101906103b4919061194a565b610e69565b005b5f5f6103c5610eed565b9050806002015f8581526020019081526020015f205f9054906101000a900460ff16806104495750806001015f8581526020019081526020015f205f8473ffffffffffffffffffffffffffffffffffffffff1673ffffffffffffffffffffffffffffffffffffffff1681526020019081526020015f205f9054906101000a900460ff165b806104aa5750805f015f8581526020019081526020015f205f8473ffffffffffffffffffffffffffffffffffffffff1673ffffffffffffffffffffffffffffffffffffffff1681526020019081526020015f205f9054906101000a900460ff165b91505092915050565b816104be81336109f4565b6104ff57336040517f3fcc3f170000000000000000000000000000000000000000000000000000000081526004016104f69190611b6d565b60405180910390fd5b815f73ffffffffffffffffffffffffffffffffffffffff168173ffffffffffffffffffffffffffffffffffffffff1603610565576040517ff6b2911f00000000000000000000000000000000000000000000000000000000815260040160405180910390fd5b5f61056e610eed565b90506001816001015f8781526020019081526020015f205f8673ffffffffffffffffffffffffffffffffffffffff1673ffffffffffffffffffffffffffffffffffffffff1681526020019081526020015f205f6101000a81548160ff021916908315150217905550848473ffffffffffffffffffffffffffffffffffffffff163373ffffffffffffffffffffffffffffffffffffffff167f6462b576f61d0d0c438945cb34f6f4f39fa054c99b62da279bcecd5ac67d861960405160405180910390a45050505050565b610640610f14565b805f73ffffffffffffffffffffffffffffffffffffffff168173ffffffffffffffffffffffffffffffffffffffff16036106a6576040517ff6b2911f00000000000000000000000000000000000000000000000000000000815260040160405180910390fd5b5f6106af610eed565b905082816003015f6101000a81548173ffffffffffffffffffffffffffffffffffffffff021916908373ffffffffffffffffffffffffffffffffffffffff1602179055508273ffffffffffffffffffffffffffffffffffffffff167f98888628867a098e83226cb89b1e731dc956b1231f17f96e01a0b77e0897f28860405160405180910390a2505050565b5f5c5f5f5d6001810160015b8181101561076357805c5f825d5f815d50600181019050610747565b505050565b805f73ffffffffffffffffffffffffffffffffffffffff168173ffffffffffffffffffffffffffffffffffffffff16036107ce576040517ff6b2911f00000000000000000000000000000000000000000000000000000000815260040160405180910390fd5b5f6107d7610eed565b9050806003015f9054906101000a900473ffffffffffffffffffffffffffffffffffffffff1673ffffffffffffffffffffffffffffffffffffffff163373ffffffffffffffffffffffffffffffffffffffff161415801561083f575061083d84336109f4565b155b1561088157336040517f3fcc3f170000000000000000000000000000000000000000000000000000000081526004016108789190611b6d565b60405180910390fd5b5f8484604051602001610895929190611d25565b6040516020818303038152906040528051906020012090506001815d5f5c6001810182815d805f5d50505050505050565b6108ce610f9b565b6108d782611081565b6108e1828261108c565b5050565b5f6108ee6111aa565b7f360894a13ba1a3210667c828492db98dca3e2076cc3735a920a3ca505d382bbc5f1b905090565b8061092181336109f4565b61096257336040517f3fcc3f170000000000000000000000000000000000000000000000000000000081526004016109599190611b6d565b60405180910390fd5b5f61096b610eed565b90506001816002015f8581526020019081526020015f205f6101000a81548160ff021916908315150217905550823373ffffffffffffffffffffffffffffffffffffffff167fbdec18fc4c128fcccccd5752b56d64498a09cf8edb26aa782f6a3c30568b665c60405160405180910390a3505050565b6109e9610f14565b6109f25f611231565b565b5f6109ff8383611302565b80610a105750610a0f838361133f565b5b905092915050565b5f5f610a226113ae565b9050805f015f9054906101000a900473ffffffffffffffffffffffffffffffffffffffff1691505090565b5f5f610a57610eed565b9050806002015f8481526020019081526020015f205f9054906101000a900460ff16915050919050565b6040518060400160405280600581526020017f352e302e3000000000000000000000000000000000000000000000000000000081525081565b81610ac581336109f4565b610b0657336040517f3fcc3f17000000000000000000000000000000000000000000000000000000008152600401610afd9190611b6d565b60405180910390fd5b815f73ffffffffffffffffffffffffffffffffffffffff168173ffffffffffffffffffffffffffffffffffffffff1603610b6c576040517ff6b2911f00000000000000000000000000000000000000000000000000000000815260040160405180910390fd5b5f610b75610eed565b90506001815f015f8781526020019081526020015f205f8673ffffffffffffffffffffffffffffffffffffffff1673ffffffffffffffffffffffffffffffffffffffff1681526020019081526020015f205f6101000a81548160ff021916908315150217905550848473ffffffffffffffffffffffffffffffffffffffff163373ffffffffffffffffffffffffffffffffffffffff167fe2e1decee6e05ee246cd7c7f1337d25cdfd41dcbdcf8c57b61630be56cc7366a60405160405180910390a45050505050565b5f610c476113d5565b90505f815f0160089054906101000a900460ff161590505f825f015f9054906101000a900467ffffffffffffffff1690505f5f8267ffffffffffffffff16148015610c8f5750825b90505f60018367ffffffffffffffff16148015610cc257505f3073ffffffffffffffffffffffffffffffffffffffff163b145b905081158015610cd0575080155b15610d07576040517ff92ee8a900000000000000000000000000000000000000000000000000000000815260040160405180910390fd5b6001855f015f6101000a81548167ffffffffffffffff021916908367ffffffffffffffff1602179055508315610d54576001855f0160086101000a81548160ff0219169083151502179055505b610d5c6113e8565b610d65866113f2565b8315610dbf575f855f0160086101000a81548160ff0219169083151502179055507fc7f505b2f371ae2175ee4913f4499e1f2633a7b5936321eed1cdaeb6115181d26001604051610db69190611da5565b60405180910390a15b505050505050565b5f5f90505b82829050811015610e6357610dfa838383818110610ded57610dec611dbe565b5b90506020020135856109f4565b610e5657828282818110610e1157610e10611dbe565b5b90506020020135846040517fb87a12a9000000000000000000000000000000000000000000000000000000008152600401610e4d929190611deb565b60405180910390fd5b8080600101915050610dcc565b50505050565b610e71610f14565b5f73ffffffffffffffffffffffffffffffffffffffff168173ffffffffffffffffffffffffffffffffffffffff1603610ee1575f6040517f1e4fbdf7000000000000000000000000000000000000000000000000000000008152600401610ed89190611b6d565b60405180910390fd5b610eea81611231565b50565b5f7f5fa92c526386e73fafd299993c824ec0066c31df37611b1c3fad8e9fb5701800905090565b610f1c611406565b73ffffffffffffffffffffffffffffffffffffffff16610f3a610a18565b73ffffffffffffffffffffffffffffffffffffffff1614610f9957610f5d611406565b6040517f118cdaa7000000000000000000000000000000000000000000000000000000008152600401610f909190611b6d565b60405180910390fd5b565b7f000000000000000000000000000000000000000000000000000000000000000073ffffffffffffffffffffffffffffffffffffffff163073ffffffffffffffffffffffffffffffffffffffff16148061104857507f000000000000000000000000000000000000000000000000000000000000000073ffffffffffffffffffffffffffffffffffffffff1661102f61140d565b73ffffffffffffffffffffffffffffffffffffffff1614155b1561107f576040517fe07c8dba00000000000000000000000000000000000000000000000000000000815260040160405180910390fd5b565b611089610f14565b50565b8173ffffffffffffffffffffffffffffffffffffffff166352d1902d6040518163ffffffff1660e01b8152600401602060405180830381865afa9250505080156110f457506040513d601f19601f820116820180604052508101906110f19190611e26565b60015b61113557816040517f4c9c8ce300000000000000000000000000000000000000000000000000000000815260040161112c9190611b6d565b60405180910390fd5b7f360894a13ba1a3210667c828492db98dca3e2076cc3735a920a3ca505d382bbc5f1b811461119b57806040517faa1d49a40000000000000000000000000000000000000000000000000000000081526004016111929190611b1a565b60405180910390fd5b6111a58383611460565b505050565b7f000000000000000000000000000000000000000000000000000000000000000073ffffffffffffffffffffffffffffffffffffffff163073ffffffffffffffffffffffffffffffffffffffff161461122f576040517fe07c8dba00000000000000000000000000000000000000000000000000000000815260040160405180910390fd5b565b5f61123a6113ae565b90505f815f015f9054906101000a900473ffffffffffffffffffffffffffffffffffffffff16905082825f015f6101000a81548173ffffffffffffffffffffffffffffffffffffffff021916908373ffffffffffffffffffffffffffffffffffffffff1602179055508273ffffffffffffffffffffffffffffffffffffffff168173ffffffffffffffffffffffffffffffffffffffff167f8be0079c531659141344cd1fd0a4f28419497f9722a3daafe3b4186f6b6457e060405160405180910390a3505050565b5f5f5f8484604051602001611318929190611d25565b604051602081830303815290604052805190602001209050805c9150819250505092915050565b5f5f611349610eed565b9050805f015f8581526020019081526020015f205f8473ffffffffffffffffffffffffffffffffffffffff1673ffffffffffffffffffffffffffffffffffffffff1681526020019081526020015f205f9054906101000a900460ff1691505092915050565b5f7f9016d09d72d40fdae2fd8ceac6b6234c7706214fd39c1cd1e609a0528c199300905090565b5f5f6113df6114d2565b90508091505090565b6113f06114fb565b565b6113fa6114fb565b6114038161153b565b50565b5f33905090565b5f6114397f360894a13ba1a3210667c828492db98dca3e2076cc3735a920a3ca505d382bbc5f1b6115bf565b5f015f9054906101000a900473ffffffffffffffffffffffffffffffffffffffff16905090565b611469826115c8565b8173ffffffffffffffffffffffffffffffffffffffff167fbc7cd75a20ee27fd9adebab32041f755214dbc6bffa90cc0225b39da2e5c2d3b60405160405180910390a25f815111156114c5576114bf8282611691565b506114ce565b6114cd611711565b5b5050565b5f7ff0c57e16840df040f15088dc2f81fe391c3923bec73e23a9662efc9c229c6a005f1b905090565b61150361174d565b611539576040517fd7e6bcf800000000000000000000000000000000000000000000000000000000815260040160405180910390fd5b565b6115436114fb565b5f73ffffffffffffffffffffffffffffffffffffffff168173ffffffffffffffffffffffffffffffffffffffff16036115b3575f6040517f1e4fbdf70000000000000000000000000000000000000000000000000000000081526004016115aa9190611b6d565b60405180910390fd5b6115bc81611231565b50565b5f819050919050565b5f8173ffffffffffffffffffffffffffffffffffffffff163b0361162357806040517f4c9c8ce300000000000000000000000000000000000000000000000000000000815260040161161a9190611b6d565b60405180910390fd5b8061164f7f360894a13ba1a3210667c828492db98dca3e2076cc3735a920a3ca505d382bbc5f1b6115bf565b5f015f6101000a81548173ffffffffffffffffffffffffffffffffffffffff021916908373ffffffffffffffffffffffffffffffffffffffff16021790555050565b60605f5f8473ffffffffffffffffffffffffffffffffffffffff16846040516116ba9190611e95565b5f60405180830381855af49150503d805f81146116f2576040519150601f19603f3d011682016040523d82523d5f602084013e6116f7565b606091505b509150915061170785838361176b565b9250505092915050565b5f34111561174b576040517fb398979f00000000000000000000000000000000000000000000000000000000815260040160405180910390fd5b565b5f6117566113d5565b5f0160089054906101000a900460ff16905090565b6060826117805761177b826117f8565b6117f0565b5f82511480156117a657505f8473ffffffffffffffffffffffffffffffffffffffff163b145b156117e857836040517f9996b3150000000000000000000000000000000000000000000000000000000081526004016117df9190611b6d565b60405180910390fd5b8190506117f1565b5b9392505050565b5f8151111561180957805160208201fd5b6040517fd6bda27500000000000000000000000000000000000000000000000000000000815260040160405180910390fd5b5f604051905090565b5f5ffd5b5f5ffd5b5f819050919050565b61185e8161184c565b8114611868575f5ffd5b50565b5f8135905061187981611855565b92915050565b5f73ffffffffffffffffffffffffffffffffffffffff82169050919050565b5f6118a88261187f565b9050919050565b6118b88161189e565b81146118c2575f5ffd5b50565b5f813590506118d3816118af565b92915050565b5f5f604083850312156118ef576118ee611844565b5b5f6118fc8582860161186b565b925050602061190d858286016118c5565b9150509250929050565b5f8115159050919050565b61192b81611917565b82525050565b5f6020820190506119445f830184611922565b92915050565b5f6020828403121561195f5761195e611844565b5b5f61196c848285016118c5565b91505092915050565b5f5ffd5b5f5ffd5b5f601f19601f8301169050919050565b7f4e487b71000000000000000000000000000000000000000000000000000000005f52604160045260245ffd5b6119c38261197d565b810181811067ffffffffffffffff821117156119e2576119e161198d565b5b80604052505050565b5f6119f461183b565b9050611a0082826119ba565b919050565b5f67ffffffffffffffff821115611a1f57611a1e61198d565b5b611a288261197d565b9050602081019050919050565b828183375f83830152505050565b5f611a55611a5084611a05565b6119eb565b905082815260208101848484011115611a7157611a70611979565b5b611a7c848285611a35565b509392505050565b5f82601f830112611a9857611a97611975565b5b8135611aa8848260208601611a43565b91505092915050565b5f5f60408385031215611ac757611ac6611844565b5b5f611ad4858286016118c5565b925050602083013567ffffffffffffffff811115611af557611af4611848565b5b611b0185828601611a84565b9150509250929050565b611b148161184c565b82525050565b5f602082019050611b2d5f830184611b0b565b92915050565b5f60208284031215611b4857611b47611844565b5b5f611b558482850161186b565b91505092915050565b611b678161189e565b82525050565b5f602082019050611b805f830184611b5e565b92915050565b5f81519050919050565b5f82825260208201905092915050565b8281835e5f83830152505050565b5f611bb882611b86565b611bc28185611b90565b9350611bd2818560208601611ba0565b611bdb8161197d565b840191505092915050565b5f6020820190508181035f830152611bfe8184611bae565b905092915050565b5f5ffd5b5f5ffd5b5f5f83601f840112611c2357611c22611975565b5b8235905067ffffffffffffffff811115611c4057611c3f611c06565b5b602083019150836020820283011115611c5c57611c5b611c0a565b5b9250929050565b5f5f5f60408486031215611c7a57611c79611844565b5b5f611c87868287016118c5565b935050602084013567ffffffffffffffff811115611ca857611ca7611848565b5b611cb486828701611c0e565b92509250509250925092565b5f819050919050565b611cda611cd58261184c565b611cc0565b82525050565b5f8160601b9050919050565b5f611cf682611ce0565b9050919050565b5f611d0782611cec565b9050919050565b611d1f611d1a8261189e565b611cfd565b82525050565b5f611d308285611cc9565b602082019150611d408284611d0e565b6014820191508190509392505050565b5f819050919050565b5f67ffffffffffffffff82169050919050565b5f819050919050565b5f611d8f611d8a611d8584611d50565b611d6c565b611d59565b9050919050565b611d9f81611d75565b82525050565b5f602082019050611db85f830184611d96565b92915050565b7f4e487b71000000000000000000000000000000000000000000000000000000005f52603260045260245ffd5b5f604082019050611dfe5f830185611b0b565b611e0b6020830184611b5e565b9392505050565b5f81519050611e2081611855565b92915050565b5f60208284031215611e3b57611e3a611844565b5b5f611e4884828501611e12565b91505092915050565b5f81519050919050565b5f81905092915050565b5f611e6f82611e51565b611e798185611e5b565b9350611e89818560208601611ba0565b80840191505092915050565b5f611ea08284611e65565b91508190509291505056fea26469706673582212200bde25ae2b42c8fef1e42ba743b0c92ed3ca09c95fe935a17ef61a1d3e3de6ca64736f6c634300081c0033",
  "linkReferences": {},
  "deployedLinkReferences": {},
  "immutableReferences": {
    "482": [
      {
        "length": 32,
        "start": 3997
      },
      {
        "length": 32,
        "start": 4082
      },
      {
        "length": 32,
        "start": 4524
      }
    ]
  },
  "inputSourceName": "project/contracts/ACL.sol",
  "buildInfoId": "solc-0_8_28-bb5a990c2823a4d155680a2b8950dcdfb265adc6"
}